:100000000C9465000C948D000C948D000C948D0064
:100010000C948D000C948D000C948D000C94F512B2
:100020000C948D000C948D000C948D000C948D001C
:100030000C948D000C948D000C948D000C948D000C
:100040000C9426020C948D000C9442040C948504AC
:100050000C948D000C948D000C948D000C948D00EC
:100060000C948D000C948D0000000007000201002C
:100070000003040600000000000000000102040864
:100080001020408001020408102001020408102002
:10009000040404040404040402020202020203032E
:1000A0000303030300000000250028002B000000CC
:1000B0000000240027002A00ED014105F305700926
:1000C000030BA40C8F0EDC14E21711241FBECFEF1C
:1000D000D8E0DEBFCDBF12E0A0E0B1E0EEE2F0E399
:1000E00002C005900D92A435B107D9F714E0A4E53C
:1000F000B2E001C01D92AC31B107E1F710E0CAECEB
:10010000D0E004C02297FE010E941118C83BD1071D
:10011000C9F70E9402060C9415180C940000CF93A6
:10012000DF9300D000D000D0CDB7DEB740E052EC76
:1001300061E070E081E792E00E94C00488E092E014
:100140009A83898380915C0290915D02A0915E0206
:10015000B0915F028B839C83AD83BE83AE014F5F02
:100160005F4F60E071E087E293E00E94A30A84E5BC
:1001700092E00E94270B6CE071E081E792E00E9420
:100180004D0667E273E0CE0101960E94E10ABE01CE
:100190006F5F7F4F81E792E00E948A0660E0809166
:1001A00006010E94370380E00E94B91340E060E03E
:1001B0008EE00E94E11340E157E260E177E28EE0D9
:1001C0000E944A1426960FB6F894DEBF0FBECDBF2C
:1001D000DF91CF910895CF92DF92EF92FF920F932C
:1001E0001F93CF93DF93CDB7DEB72E970FB6F8945A
:1001F000DEBF0FBECDBF7C0164E572E08E010F5FF4
:100200001F4FC8010E94300CC8010E94A807882314
:1002100009F4B1C06AE171E081E792E00E947606DC
:1002200091C0C8010E94F307892B09F48FC0C8014F
:100230000E94D807482FE0917102F0917202BC0130
:1002400077270190F081E02D81E792E04E870995B4
:100250004E854A3009F073C0DD2009F473C065E2B1
:1002600071E0C8010E94760665E371E0C8010E9452
:1002700076066DE471E0C8010E9476066FE571E0D4
:10028000C8010E947606C8010E9460066AE671E015
:10029000C8010E9476066AE771E0C8010E947606EE
:1002A00002E010E0802F0E9405026C0161E871E01D
:1002B000CE0101960E944D064AE050E0B801CE0101
:1002C00001960E9459076FE871E0CE0101960E94E5
:1002D0004D064AE050E0B601CE0101960E94590752
:1002E00064E971E0CE0101960E9476060F5F1F4F10
:1002F00006301105B9F66BE971E0CE0101960E9456
:100300004D0660916002709161024AE050E0CE01BA
:1003100001960E9461076BEB71E0CE0101960E948D
:100320004D064AE050E0B701CE0101960E946107F8
:1003300069ED71E0CE0101960E9476060CC04D3049
:1003400021F404C0DD24D39401C0D12CC8010E9443
:100350009C08811166CF61E070E080E090E00E942F
:10036000AC02CE0101960E94C00861EE71E081E707
:1003700092E00E9476062E960FB6F894DEBF0FBE6E
:10038000CDBFDF91CF911F910F91FF90EF90DF9044
:10039000CF900895CF930E94700228EE33E040E0A2
:1003A00050E00E94ED17C9010E94EB00C0E040E060
:1003B0006C2F8EE00E94E1136C2F609540E08FE07F
:1003C0000E94E1136EE170E080E090E00E94AC02D8
:1003D000CF5FCF3F61F7CF9108950F9300E020E00A
:1003E00040E060E082E692E00E94DC0509EF20E553
:1003F00048EA60EC8AE592E00E94DC0560E570E086
:1004000084E592E00F910C946B0B8E3008F08E50C7
:1004100087702091080140E4249F90011124822BD1
:1004200080937C0080917A00806480937A00809130
:100430007A0086FDFCCF2091780030917900932FCF
:1004400080E0AC01422B9A01C90108951F920F92DE
:100450000FB60F9211242F933F938F939F93AF93D7
:10046000BF938091680290916902A0916A02B09155
:100470006B0230917002232F2D5F2D3720F40196EF
:10048000A11DB11D05C0232F2A570296A11DB11D24
:10049000209370028093680290936902A0936A028D
:1004A000B0936B0280916C0290916D02A0916E02EC
:1004B000B0916F020196A11DB11D80936C029093C3
:1004C0006D02A0936E02B0936F02BF91AF919F91A6
:1004D0008F913F912F910F900FBE0F901F90189505
:1004E0000F931F938FB7F8940091680210916902DF
:1004F00020916A0230916B028FBFB801C9011F9130
:100500000F9108950F931F939FB7F89400916C0279
:1005100010916D0220916E0230916F0286B5A89BFA
:1005200006C08F3F21F00F5F1F4F2F4F3F4F9FBFE0
:10053000322F212F102F0027080F111D211D311DD3
:1005400042E0000F111F221F331F4A95D1F7B80157
:10055000C9011F910F910895CF92DF92EF92FF9200
:10056000CF93DF936B017C010E948202EB010EC0EE
:100570000E9482026C1B7D0B683E734038F081E064
:10058000C81AD108E108F108C851DC4FC114D104E0
:10059000E104F10469F7DF91CF91FF90EF90DF90D4
:1005A000CF900895789484B5826084BD84B58160CD
:1005B00084BD85B5826085BD85B5816085BDEEE66B
:1005C000F0E0808181608083E1E8F0E0108280814A
:1005D00082608083808181608083E0E8F0E08081B8
:1005E00081608083E1EBF0E0808184608083E0EBD8
:1005F000F0E0808181608083EAE7F0E080818460C0
:10060000808380818260808380818160808380811B
:10061000806880831092C1000895833069F028F4C7
:100620008130A1F0823011F514C08630B1F08730EE
:10063000C1F08430D9F404C0809180008F7703C06A
:10064000809180008F7D80938000089584B58F779E
:1006500002C084B58F7D84BD08958091B0008F77EE
:1006600003C08091B0008F7D8093B0000895CF9338
:10067000DF9390E0FC01E458FF4F4491FC01E05708
:10068000FF4F8491882341F190E0880F991FFC016E
:10069000E255FF4F25913491D9018C559F4FFC01B4
:1006A00085919491C82FD92F9FB7F8948C9161119F
:1006B00006C0409584238C938881842308C06230CF
:1006C00041F4242F209582238C938881842B888366
:1006D00002C0842B8C939FBFDF91CF9108950F931D
:1006E0001F93CF93DF931F92CDB7DEB7282F30E053
:1006F000F901E859FF4F8491F901E458FF4F149133
:10070000F901E057FF4F04910023D1F0882321F035
:1007100069830E940D036981E02FF0E0EE0FFF1F57
:10072000EC55FF4F85919491DC019FB7F8948C9123
:10073000611103C01095812301C0812B8C939FBF51
:100740000F90DF91CF911F910F910895FC01848547
:100750009585FC01E05CFF4F20813181FC01EE5B5F
:10076000FF4F80819181281B390B2F733327C901DB
:100770000895FC0184859585FC01E05CFF4F408174
:100780005181FC01EE5BFF4F2081318142175307FD
:1007900041F00190F081E02DE80FF91F208130E059
:1007A00002C02FEF3FEFC9010895FC0184859585B4
:1007B000FC01E05CFF4F40815181FC01EE5BFF4F8B
:1007C000208131814217530781F0A081B181A80FA8
:1007D000B91F8C91208131812F5F3F4F2F733327B9
:1007E00031832083282F30E002C02FEF3FEFC90173
:1007F0000895FC0181A1882329F0A489B5898C91F1
:1008000086FFFBCF11A20895CF93DF93FC012685CD
:100810003785D901A05CBF4F8D919C9111970196AE
:100820008F739927E901CE5BDF4F48815981841787
:100830009507D9F30D90BC91A02DA20FB31F6C9317
:10084000A685B785A05CBF4F11969C938E93A68911
:10085000B7892C9181E090E0078C02C0880F991F26
:100860000A94E2F7282B2C9381E081A30488F58970
:10087000E02D80818064808381E090E0DF91CF91E2
:10088000089508951F920F920FB60F9211242F937F
:100890003F934F938F939F93EF93FF938091C0006B
:1008A00082FD1CC04091C6008091170390911803EF
:1008B00001968F7399272091190330911A0382179B
:1008C000930771F0E0911703F0911803E952FD4F7F
:1008D0004083909318038093170302C08091C60051
:1008E000FF91EF919F918F914F913F912F910F9099
:1008F0000FBE0F901F90189581E792E00E94A6030B
:10090000892B11F00C94410408951F920F920FB699
:100910000F9211242F933F938F939F93EF93FF9305
:100920002091D3023091D4028091D5029091D602C9
:100930002817390731F48091C1008F7D8093C10061
:1009400014C0E091D502F091D602ED56FD4F208102
:100950008091D5029091D60201968F73992790933A
:10096000D6028093D5022093C600FF91EF919F910C
:100970008F913F912F910F900FBE0F901F90189560
:10098000CF92DF92EF92FF92CF93DF93EC016A0157
:100990007B01411581EE580761057105F9F0EC897D
:1009A000FD8981E090E008A002C0880F991F0A9499
:1009B000E2F7808360E079E08DE390E0A7019601A3
:1009C0000E94ED172150310941095109569547956B
:1009D00037952795211580E1380798F0EC89FD8936
:1009E000108260E874E88EE190E0A70196010E9411
:1009F000ED17215031094109510956954795379511
:100A00002795E889F9893083EA89FB89208319A22F
:100A1000EE89FF89408181E090E09C010C8C02C04E
:100A2000220F331F0A94E2F7422B4083EE89FF899D
:100A300040819C010D8C02C0220F331F0A94E2F703
:100A4000422B4083EE89FF8940819C010E8C02C0BD
:100A5000220F331F0A94E2F7422B4083EE89FF896D
:100A600020810F8C02C0880F991F0A94E2F78095AD
:100A700082238083DF91CF91FF90EF90DF90CF9022
:100A80000895109274021092730288EE93E0A0E031
:100A9000B0E08093750290937602A0937702B093B2
:100AA000780288EF91E0909372028093710287ED53
:100AB00092E090937E0280937D0283E992E090938E
:100AC000800280937F0285EC90E090938202809375
:100AD000810284EC90E0909384028093830280EC06
:100AE00090E0909386028093850281EC90E0909351
:100AF00088028093870282EC90E090938A02809330
:100B0000890286EC90E090938C0280938B0284E0C3
:100B100080938D0283E080938E0287E080938F0222
:100B200085E08093900281E0809391020895AF92D6
:100B3000BF92CF92DF92EF92FF920F931F93CF93CA
:100B4000DF936C017B01C0E0D0E000E010E0F60133
:100B5000EC0FFD1F4AE050E06281C7010E940707C9
:100B60005C016EE2C7010E944F068A0D9B1D080FB3
:100B7000191F2196C330D10551F74AE050E0F60124
:100B80006581C7010E940707080F191FC801DF917F
:100B9000CF911F910F91FF90EF90DF90CF90BF907A
:100BA000AF90089528E032E0FC0131832083128267
:100BB00013821482158208950F93FC0188E092E05D
:100BC0009183808362834383248305830F910895F7
:100BD000FC01DB014D915D916D917C9142835383CA
:100BE00064837583089588E092E090931C0380935A
:100BF0001B0310921D0310921E0310921F031092EC
:100C0000200308950E94D2020E948F00CCE7D4E016
:100C10000E94CA012097E1F30E947C04F9CFCF9291
:100C2000DF92EF92FF920F931F93CF93DF936C01AC
:100C3000EB017A01E60EF71E00E010E00BC06991AF
:100C4000D601ED91FC910190F081E02DC60109954E
:100C5000080F191FCE15DF0591F7C801DF91CF915D
:100C60001F910F91FF90EF90DF90CF900895611545
:100C7000710581F0DB010D900020E9F7AD014150D5
:100C80005109461B570BDC01ED91FC910280F38169
:100C9000E02D099480E090E008950C943706DC0183
:100CA000ED91FC910190F081E02D0994DB01ED9133
:100CB000FC9111970190F081E02DBC01CD010994C8
:100CC0000F931F93CF93DF93EC016DE00E944F06CB
:100CD0008C016AE0CE010E944F069C01200F311F5B
:100CE000C901DF91CF911F910F9108950F931F9329
:100CF000CF93DF93EC010E9437068C01CE010E9456
:100D000060069801280F391FC901DF91CF911F910B
:100D10000F9108950F931F93CF93DF93EC010E94DF
:100D200056068C01CE010E9460069C01200F311FE7
:100D3000C901DF91CF911F910F9108954F925F925A
:100D40006F927F929F92AF92BF92CF92DF92EF927B
:100D5000FF920F931F93CF93DF93CDB7DEB7A19789
:100D60000FB6F894DEBF0FBECDBF5C016A017B01F8
:100D7000922E19A281E0821710F08AE0982E8E013F
:100D80000F5D1F4F492C512C612C712CC701B601EE
:100D9000A30192010E94ED178C2D929E80191124BF
:100DA000015011098A3010F4805D01C0895CF8019E
:100DB000808369017A01C114D104E104F10431F79F
:100DC000B801C5010E943706A1960FB6F894DEBFA0
:100DD0000FBECDBFDF91CF911F910F91FF90EF908C
:100DE000DF90CF90BF90AF909F907F906F905F907B
:100DF0004F9008952115310541F4DC01ED91FC91EE
:100E00000190F081E02D642F09940C949E069A01C4
:100E1000462F50E060E070E00C94FA06CF92DF922B
:100E2000EF92FF920F931F93CF93DF93EC016A0130
:100E30007B012115310579F4E881F9810190F08178
:100E4000E02D642FDF91CF911F910F91FF90EF90D4
:100E5000DF90CF9009942A30310519F477FD0EC048
:100E60002AE0B701A601CE01DF91CF911F910F912A
:100E7000FF90EF90DF90CF900C949E066DE20E9461
:100E80004F068C0144275527BA014C195D096E099C
:100E90007F092AE0CE010E949E06080F191FC80193
:100EA000DF91CF911F910F91FF90EF90DF90CF9046
:100EB00008959A01AB01662757FD6095762F0C9433
:100EC0000E070F931F93CF93DF93EC019A01AB01B1
:100ED000662757FD6095762F0E940E078C01CE0184
:100EE0000E9460069801280F391FC901DF91CF9138
:100EF0001F910F910895CF93DF931F92CDB7DEB767
:100F00006983DC01ED91FC910280F381E02D41E0E9
:100F100050E0BE016F5F7F4F09950F90DF91CF9139
:100F20000895CF93DF93EC0107C0E881F981068033
:100F3000F781E02DCE010995E881F9810480F581E2
:100F4000E02DCE010995892B81F7DF91CF9108958E
:100F500021E0FC018485843009F420E0822F08958B
:100F60000F931F93CF93DF931F92CDB7DEB78C0102
:100F7000DC01ED91FC910480F581E02D0995892B30
:100F800051F0BE016F5F7F4FF80184850E940E1003
:100F9000298130E002C02FEF3FEFC9010F90DF91B0
:100FA000CF911F910F910895FC0184850C94D00F6F
:100FB000CF93DF931F92CDB7DEB741E050E0BE0183
:100FC0006F5F7F4FFC0184850E94D00F18161906B1
:100FD0001CF4298130E002C02FEF3FEFC9010F90D0
:100FE000DF91CF910895FC016485643021F08BE49A
:100FF00093E00C94E11180E090E008950F931F932B
:10100000CF93DF938C01EA01FC018485843019F4CD
:1010100081E090E007C00E947E0F892B39F481E0C7
:1010200090E0F80193838283C0E0D0E0CE01DF91AD
:10103000CF911F910F910895CF92DF92EF92FF927F
:101040000F931F93CF93DF93CDB7DEB7AF970FB654
:10105000F894DEBF0FBECDBF7C018B016A01CE01CB
:1010600001960E94D205CE0109960E94190ECE016A
:101070008A960E94D20567E273E0CE0184960E94B0
:10108000F30ABE016C5D7F4FCE0101960E94E7140A
:10109000AE01465D5F4FB801CE0101960E9449172F
:1010A0009C0181309105C9F4D701ED91FC91048434
:1010B000F585E02D88E092E09DA38CA30CA51DA5ED
:1010C0002EA53FA50EA31FA328A739A7A601BE01E1
:1010D0006C5D7F4FC70109959C01C901AF960FB6A2
:1010E000F894DEBF0FBECDBFDF91CF911F910F915E
:1010F000FF90EF90DF90CF900895FC01262F138290
:10110000128248EE53E060E070E0448355836683CA
:1011100077838EE092E09183808324870895FC0199
:101120008485843039F0382F20E0C9018D5F9B4FD2
:101130000C94341180E00895CF93DF93EC018C85FB
:101140008430D1F0CE010E948F08843181F0882351
:1011500071F0883161F08C3161F4E881F9810480AB
:10116000F581E02DCE01099521E0892B19F420E0CD
:1011700001C021E0822F01C080E0DF91CF9108956E
:10118000CF92DF92EF92FF92CF93DF93EC018C85A9
:10119000843091F10E94780F0E9470026B017C01F3
:1011A000CE010E948F088823D1F00E9470026C1932
:1011B0007D098E099F09683E734081059105A8F05D
:1011C0000EC08C850E94E40EEC85F0E0EE0FFF1F50
:1011D000E15DFC4F1182108284E08C870DC0CE014E
:1011E0000E948F08882381F3ECCF61E070E080E0FB
:1011F00090E00E94AC02D4CFDF91CF91FF90EF90AE
:10120000DF90CF900895AF92BF92CF92DF92EF928E
:10121000FF920F931F93CF93DF93EC015B016A0161
:101220008C85843009F04EC093E0E92E94E0F92ECD
:1012300000E010E0C7010E943411811102C00C8748
:101240000AC08831E1F38C31D1F30F5F1F4FF39463
:101250000430110579F78C858430A1F120910901C2
:1012600030910A012F5F3F4F09F002C020E034E0C7
:1012700030930A01209309014091090150910A011C
:1012800020E061E00E94F10EB5016E5F7F4FA60184
:101290008C850E94430F09C061E070E080E090E01F
:1012A0000E94AC02CE010E948F08811103C084E02D
:1012B0008C8708C0CE010E948F08873169F721E032
:1012C00030E002C020E030E0C901DF91CF911F91F2
:1012D0000F91FF90EF90DF90CF90BF90AF90089567
:1012E0000F9300E020E040E060E081E293E00E94A4
:1012F000DC050F91089544E050E0BC0181E090E0EE
:101300000C94051144E050E0BC0185E090E00C94A1
:10131000051144E050E0BC018FE090E00C94051111
:101320008F929F92AF92BF92CF92DF92EF92FF92F5
:101330000F931F93CF93DF9300D0CDB7DEB74C014F
:101340006A0159018BE493E069837A830E94C71094
:1013500046E050E069817A8189E090E00E940511C1
:10136000C60102960E948909C80102960E947B0963
:10137000C70102960E948209F5014281538164816E
:101380007581F40142835383648375830F900F90BA
:10139000DF91CF911F910F91FF90EF90DF90CF9051
:1013A000BF90AF909F908F9008956F927F928F9291
:1013B0009F92AF92BF92CF92DF92EF92FF920F93E4
:1013C0001F93CF93DF93CDB7DEB76E970FB6F89428
:1013D000DEBF0FBECDBF6C015B017A014901380150
:1013E00000E02FEF4FEF6FEFCE0149960E94DC0532
:1013F00048E052E05A8349838B8D9C8DAD8DBE8D24
:101400008B839C83AD83BE8358874F83F301828196
:101410009381A481B58189879A87AB87BC875E87D2
:101420004D87F40182819381A481B5818F87988B48
:10143000A98BBA8B5C8B4B8BF70142815381648102
:1014400075814D8B5E8B6F8B788FEE24E394F12C3E
:10145000EC0EFD1E8E01095F1F4F9E01235F3F4F63
:10146000AE014D5E5F4FB501C6010E9490096E96B8
:101470000FB6F894DEBF0FBECDBFDF91CF911F91A5
:101480000F91FF90EF90DF90CF90BF90AF909F9023
:101490008F907F906F900895CF92DF92EF92FF929E
:1014A0000F931F93CF93DF93CDB7DEB768970FB637
:1014B000F894DEBF0FBECDBF6B017901DA01129641
:1014C0004D915D916D917C9115974D8B5E8B6F8BDE
:1014D000788FA8E0B2E0BA83A98321E0288F0D8934
:1014E0001E892F89388D0B831C832D833E83B887FB
:1014F000AF83F701028113812481358109871A871F
:101500002B873C87BE87AD874F87588B698B7A8B3B
:101510008E010F5F1F4F9E01295F3F4FAE01435F5A
:101520005F4FB6010E94D50968960FB6F894DEBFEA
:101530000FBECDBFDF91CF911F910F91FF90EF9024
:10154000DF90CF9008950F931F93CF93DF93CDB784
:10155000DEB762970FB6F894DEBF0FBECDBFDB01DA
:10156000FA0142815381648175814F87588B698B61
:101570007A8BE8E0F2E0FA83E98321E02A8B0F8599
:10158000188929893A890B831C832D833E83F88728
:10159000EF8349875A876B877C879E012F5F3F4F78
:1015A000AE01495F5F4FBD010E944C0A62960FB6C3
:1015B000F894DEBF0FBECDBFDF91CF911F910F9189
:1015C0000895CF93DF93EC010E94D205BE016E5FB8
:1015D0007F4F44E050E08FE090E00E942D12CE015A
:1015E000DF91CF91089528E032E0FC013183208320
:1015F000FB014281538164817581FC0142835383E5
:101600006483758308950F9300E020E040E060E07C
:1016100087E393E00E94DC0587E293E00F910C944E
:10162000D205CF93DF931F92CDB7DEB76983DC017C
:10163000ED91FC910280F381E02D41E050E0BE018C
:101640006F5F7F4F09950F90DF91CF910895EF92D3
:10165000FF920F931F93CF93DF93CDB7DEB72D97F4
:101660000FB6F894DEBF0FBECDBF7C0100E010E0E6
:10167000602FCE0101960E947D08CE0101960E9446
:101680008F08811116C0F7014481558120E061E087
:10169000802F0E94F10E802F0E94300FF70184816D
:1016A0009581F801EE0FFF1FE15DFC4F9183808370
:1016B00005C00F5F1F4F04301105D1F62D960FB6F0
:1016C000F894DEBF0FBECDBFDF91CF911F910F9178
:1016D000FF90EF900895FC01138212828AE292E05B
:1016E00091838083758364830895BF92CF92DF9244
:1016F000EF92FF920F931F93CF93DF93CDB7DEB797
:101700002D970FB6F894DEBF0FBECDBF8C014FE210
:10171000C42E43E0D42EB12CE12CF12C6B2DCE0144
:1017200001960E947D08D6012D913D916D01F80131
:101730008481958128173907B1F4CE0101960E9462
:101740008F08843169F0CE0101960E948F088C3198
:1017500051F4CE0101960E94F307892B99F003C042
:10176000EE24E394F12CB394F4E0BF12D7CFEF282A
:1017700071F4D801ED91FC910480F581E02DC80150
:10178000099505C0CE0101960E94C008ECCF2D96A8
:101790000FB6F894DEBF0FBECDBFDF91CF911F9182
:1017A0000F91FF90EF90DF90CF90BF9008957F92C0
:1017B0008F929F92AF92BF92CF92DF92EF92FF9261
:1017C0000F931F93CF93DF93CDB7DEB72D970FB64F
:1017D000F894DEBF0FBECDBF6C015B014A010E94D1
:1017E000750B5FE2E52E53E0F52E712C00E010E062
:1017F000672DCE0101960E947D08F701219131915C
:101800007F01F601848195812817390731F4CE01D3
:1018100001960E948F08873129F07394F4E07F12BB
:10182000E7CF09C0A401B501CE0101960E94FE07D1
:10183000080F191FF2CFC8012D960FB6F894DEBF1E
:101840000FBECDBFDF91CF911F910F91FF90EF9011
:10185000DF90CF90BF90AF909F908F907F90089532
:10186000BF92CF92DF92EF92FF920F931F93CF938D
:10187000DF93CDB7DEB72D970FB6F894DEBF0FBE5E
:10188000CDBF8C016B01CB010E94750B6FE2E62E80
:1018900063E0F62EB12C6B2DCE0101960E947D08DF
:1018A000F701219131917F01F601848195812817FB
:1018B000390749F5CE0101960E948F08873161F101
:1018C000CE0101960E948F088C31E9F425C08B81EE
:1018D0009C81F801938382838D819E81AF81B8853D
:1018E00084839583A683B78349855A856B857C85D8
:1018F00040875187628773878EE092E0918380836F
:101900008D85848710C0B394F4E0BF12C4CF64E027
:10191000C8010E947D0807C0CE0101960E94F3070E
:10192000892B89F3D4CFC8012D960FB6F894DEBF6A
:101930000FBECDBFDF91CF911F910F91FF90EF9020
:10194000DF90CF90BF9008950F9300E020E040E03B
:1019500060E08DE393E00E94DC050F910895DC01C7
:10196000ED91FC91008CF18DE02D099428E032E09E
:10197000FC0131832083FB01418952896389748989
:10198000FC0142835383648375830895FC01858938
:1019900096890895FC01818D928D0895CF93DF93F0
:1019A0001F92CDB7DEB76983DC01ED91FC91028017
:1019B000F381E02D41E050E0BE016F5F7F4F09955C
:1019C0000F90DF91CF910895CF93DF93EC0107C083
:1019D000E881F9810680F781E02DCE010995898D96
:1019E0009A8D892BA9F7DF91CF910895CF93DF933B
:1019F0001F92CDB7DEB7FC01218D328D232B49F02C
:101A0000BE016F5F7F4F84850E940E10298130E0F8
:101A100002C02FEF3FEFC9010F90DF91CF910895E2
:101A2000CF93DF93EC01898D9A8D009719F42FEFF6
:101A30003FEF11C04817590708F0AC018C850E9490
:101A4000D00F9C011816190694F7898D9A8D821B68
:101A5000930B9A8F898FC901DF91CF9108950F93CE
:101A60001F93CF93DF931F92CDB7DEB78C01FC019C
:101A7000818D928D892B59F041E050E0BE016F5F5E
:101A80007F4F84850E94D00F181619061CF02FEF87
:101A90003FEF08C0F801818D928D0197928F818F61
:101AA000298130E0C9010F90DF91CF911F910F91F3
:101AB0000895CF93DF93EC019A018F89988DAB0144
:101AC000BC018C850E941C109C018F89988D820F0F
:101AD000931F988F8F8BC901DF91CF910895FC01DF
:101AE00084850C947810FC01108E178A6E5F7F4FEE
:101AF00084850C945210CF93DF93EC018C85843055
:101B000061F00E94E40EEC85F0E0EE0FFF1FE15D56
:101B1000FC4F1182108284E08C87DF91CF91089571
:101B20000F931F93CF93DF93CDB7DEB728970FB6F0
:101B3000F894DEBF0FBECDBF8C01DC01ED91FC91AE
:101B40000284F385E02D0995F80164858BE493E028
:101B50000E94E111892B29F148E050E0BE016F5F3E
:101B60007F4FD8011C968C910E94D00F9C011816B3
:101B70001906CCF4BE016F5F7F4FC8010F960E941B
:101B8000E8059D8180E02E81820F911DF801968BE2
:101B9000858B3F8120E08885280F311D328F218F72
:101BA00002C020E030E0C90128960FB6F894DEBFED
:101BB0000FBECDBFDF91CF911F910F910895CF92AE
:101BC000DF92EF92FF920F931F93CF93DF93EC017D
:101BD0006B018C85843019F593E0E92E94E0F92EA1
:101BE00000E010E0C7010E943411811102C00C878F
:101BF00008C08831E1F30F5F1F4FF39404301105E3
:101C000089F78C85843059F0DE86CD861A8E198E40
:101C100020E0A60162E00E94F10E81E001C080E0B8
:101C2000DF91CF911F910F91FF90EF90DF90CF90B8
:101C30000895FC011382128248EE53E060E070E0E8
:101C4000448355836683778384E392E09183808322
:101C500084E08487CF010F960C94D205CF92DF9257
:101C6000EF92FF920F931F93CF93DF93CDB7DEB721
:101C7000AF970FB6F894DEBF0FBECDBF7C018B01CE
:101C80006A01CE0101960E94D205CE0109960E94FA
:101C9000190ECE018A960E94D20567E273E0CE014A
:101CA00084960E94F30ABE016C5D7F4FCE010196BF
:101CB0000E94E714AE01465D5F4FB801CE01019668
:101CC0000E9449179C0181309105C9F4D701ED911B
:101CD000FC910088F189E02D88E092E09DA38CA31F
:101CE0000CA51DA52EA53FA50EA31FA328A739A7A8
:101CF000A601BE016C5D7F4FC70109959C01C9011A
:101D0000AF960FB6F894DEBF0FBECDBFDF91CF9177
:101D10001F910F91FF90EF90DF90CF9008950F9358
:101D200000E020E040E060E083E493E00E94DC0516
:101D30000F910895382F20E044E050E0C901845FFE
:101D40009B4F0C940511282F30E02C5F3F4F922FB2
:101D50008827860F971F0C94341162E070E00C9472
:101D6000A30EFB01282F30E02C5F3F4F922F8827D6
:101D7000642F8E0F9F1F0C94A510462F62E070E019
:101D80000C94B10ECF93DF93C82FD62F472F60E16D
:101D900070E00E94B10E4D2F61E170E08C2FDF9159
:101DA000CF910C94B10ECF93DF93C82FD62F472F2E
:101DB00064E070E00E94B10E4D2F65E070E08C2F62
:101DC000DF91CF910C94B10ECF93C82F40E1682FD3
:101DD0008BE493E00E94E5126FEF8C2FCF910C946F
:101DE000BD0EEF92FF921F93CF93DF9300D0CDB73C
:101DF000DEB7182F7A01862F8150853040F5812F6C
:101E00002A8369830E94E40E2A816981422F462B2E
:101E100060E070E0812F0E94B10EE114F10411F036
:101E2000B7010AC06091490370914A036F5F7F4F09
:101E300070934A0360934903812F0E94D30E41E0BF
:101E4000612F8BE493E00E94E51281E001C080E005
:101E50000F900F90DF91CF911F91FF90EF90089519
:101E6000CF93C82F63E070E00E94A30E833141F44A
:101E700042E06C2F8BE493E00E94E51281E001C008
:101E800080E0CF9108951F93CF93DF93182FFB012C
:101E9000EA0180818F3F51F481818F3F91F48281EB
:101EA0008F3F79F483818F3F61F41DC0811109C098
:101EB0008181811106C08281811103C083818823C1
:101EC00091F0209781F0BF01812F0E949A0EBE01F0
:101ED000812F0E94C20E44E0612F8BE493E00E94A8
:101EE000E51281E001C080E0DF91CF911F9108955C
:101EF00048E0682F8BE493E00C94E512DF92EF92B8
:101F0000FF920F931F93CF93DF93D82E8B01EA019B
:101F1000413088E0580710F0C0E0D8E06D2D8BE428
:101F200093E00E9411127C0163E070E08D2D0E940D
:101F3000A30E873111F08C3121F4EC16FD0670F3FD
:101F400002C0C0E0D0E09E01A8016D2D8BE493E0BB
:101F50000E94C21140E26D2D8BE493E00E94E512D5
:101F60000DC063E070E08D2D0E94A30E811106C0AC
:101F70008D2D0E94E40EC0E0D0E009C08D2D0E949E
:101F8000AD0E84FFEECF60E18D2D0E94BD0ECE011F
:101F9000DF91CF911F910F91FF90EF90DF90089507
:101FA000DF92EF92FF920F931F93CF93DF93D82E80
:101FB0007B018A01682F8BE493E00E94E111EC0120
:101FC000009771F463E070E08D2D0E94A30E8431C0
:101FD000E1F08823D1F08C31C1F0CFEFDFEF15C0F5
:101FE000081719070CF4E8011C161D0674F400E02C
:101FF0009E01A7016D2D8BE493E00E94951240E4B1
:102000006D2D8BE493E00E94E512CE01DF91CF911C
:102010001F910F91FF90EF90DF9008950F93AB0108
:1020200001E021E030E0682F8BE493E00E949512FC
:1020300081E090E00F910895AF92BF92CF92DF922E
:10204000EF92FF920F931F93CF93DF93B82E7B01F4
:102050006A01E901682F8BE493E00E9411128C174A
:102060009D0740F46B2D8BE493E00E941112A82E83
:10207000C92F02C0AC2ECD2F0A2D1C2F9601A7010F
:102080006B2D8BE493E00E9454118A2D9C2FDF91DD
:10209000CF911F910F91FF90EF90DF90CF90BF9065
:1020A000AF9008951F93CF93DF93182FFB01EA01A0
:1020B0008081811109C08181811106C082818111D5
:1020C00003C08381882369F0209759F0BF01812FD5
:1020D0000E949A0EBE01812F0E94C20E21E030E0C4
:1020E00002C020E030E0C901DF91CF911F91089537
:1020F000CF93C82F40E2682F8BE493E00E94E51253
:102100000CC08C2F0E94AD0E83FF07C068E18C2F9E
:102110000E94BD0E20E030E00BC08C2F0E94AD0E5F
:1021200084FFEFCF60E18C2F0E94BD0E21E030E0F4
:10213000C901CF9108958EBD0DB407FEFDCF8EB5B8
:1021400008952A9808952A9A08951F93CF93DF93AC
:1021500000D0CDB7DEB7182F6A8399830E94A110F3
:1021600080EF0E949B109981892F0E949B10812FE4
:102170000E949B106A81862F0E949B100E94A310D0
:1021800081E00F900F90DF91CF911F910895CF9331
:10219000DF93EC016CE271E080E090E00E94AC0221
:1021A0000E94C614229A60E880E090E00E94A51088
:1021B00065E58BE190E00E94A51065E58AE190E07D
:1021C0000E94A51080E090E49983888380E090E6E7
:1021D0009987888780E098E49B838A8380E098E6EB
:1021E0009B878A8780E090E59D838C8380E090E7E1
:1021F0009D878C8780E098E59F838E8380E098E7B9
:102200009F878E87DF91CF910895CF92DF92EF92D3
:10221000FF920F931F93CF93DF93EC017A018B0111
:102220006A01C80ED91E13C00E94A11080EF0E943F
:102230009B108D2F0E949B108C2F0E949B1021962B
:10224000F80181918F010E949B100E94A310CC1570
:10225000DD0551F7C701DF91CF911F910F91FF90DD
:10226000EF90DF90CF9008951F93CF93DF931F924D
:10227000CDB7DEB7182F99830E94A1108FE00E947E
:102280009B109981892F0E949B10812F0E949B1087
:1022900080E00E949B1089830E94A31089810F9087
:1022A000DF91CF911F9108956F927F929F92AF928D
:1022B000BF92CF92DF92EF92FF920F931F93CF9333
:1022C000DF931F92CDB7DEB7F82E962E3A01590153
:1022D00064E270E0892D99830E94A30EE82E65E2E6
:1022E00070E0892D0E94A30EDE2CC12CC82AC60CDA
:1022F000D71C960137706F2C9981792E690C711C4F
:10230000690C711CD301ED91FC91E20FF31FC9011F
:10231000800F911F81309840A0F0E12C48E0F42E0E
:10232000E21AF30AA701B501CF010E940511A80125
:102330004E195F09B5016E0D7F1DF30180819181FA
:1023400003C0A801B501CF010E9405110C0D1D1D90
:10235000412F64E270E0892D0E94B10E402F65E2AA
:1023600070E0892D0F90DF91CF911F910F91FF9019
:10237000EF90DF90CF90BF90AF909F907F906F9045
:102380000C94B10E0F931F9389019A0140E050E025
:102390000E9454111F910F910895CF93DF93C82F7E
:1023A00066E270E00E94A30ED82F67E270E08C2FE7
:1023B0000E94A30E3D2F20E0282BC901DF91CF9171
:1023C0000895FF920F931F93CF93DF93F62EC0E0F3
:1023D000D0E08F2D0E94CD118C01009721F08F2D20
:1023E0000E94CD11EC01C017D10799F7CE01DF9102
:1023F000CF911F910F91FF900895CF93DF93C82F36
:1024000060E270E00E94A30ED82F61E270E08C2F92
:102410000E94A30E3D2F20E0282BC901DF91CF9110
:102420000895FF920F931F93CF93DF93F62EC0E092
:10243000D0E08F2D0E94FD118C01009721F08F2D8F
:102440000E94FD11EC01C017D10799F7CE01DF9171
:10245000CF911F910F91FF900895CF92DF92EF924D
:10246000FF920F931F93CF93DF93EC017A018B01BF
:102470006A01C80ED91E14C00E94A1108FE00E94EC
:102480009B108D2F0E949B108C2F0E949B102196D9
:1024900080E00E949B10F80181938F010E94A3109D
:1024A000CC15DD0549F7C701DF91CF911F910F9141
:1024B000FF90EF90DF90CF900895CF92DF92EF9250
:1024C000FF920F931F93CF93DF9369015770EC0135
:1024D000C60FD11DC60FD11D289688819981840F02
:1024E000951F9801240F351F2130384090F0E12CC2
:1024F00068E0F62EE41AF50AA701B6010E942D1233
:10250000A8014E195F09B6016E0D7F1D8881998162
:1025100002C0A801B601DF91CF911F910F91FF90EA
:10252000EF90DF90CF900C942D128F929F92AF92EC
:10253000BF92CF92DF92EF92FF920F931F93CF93B0
:10254000DF936C01962E5A01E901802E68E270E05B
:10255000892D0E94A30EF82E69E270E0892D0E9459
:10256000A30EFF2DE0E07F01E82A8E019501A7016F
:10257000692DC6010E945D1281101AC0CE0DDF1DAB
:102580004D2F68E270E0892D0E94B10E4C2F69E258
:1025900070E0892DDF91CF911F910F91FF90EF9007
:1025A000DF90CF90BF90AF909F908F900C94B10E22
:1025B000DF91CF911F910F91FF90EF90DF90CF901F
:1025C000BF90AF909F908F900895CF93C62F61E0FA
:1025D00070E08C2F0E94B10E61E070E08C2F0E94A1
:1025E000A30E8111F9CFCF9108951F920F920FB6CC
:1025F0000F921124CF92DF92FF920F931F932F938C
:102600003F934F935F936F937F938F939F93AF937A
:10261000BF93CF93DF93EF93FF9380910B018F5F75
:1026200080930B01882339F041E653E0AFE5B3E036
:10263000ECE5F3E060C0E1E6F3E04FE553E0CCE524
:10264000D3E020E633E083E6C82E83E0D82EC6012F
:102650000197DC01FC90F11004C0D6018C91882315
:1026600001F1D9018C9190E0608170E08C01061B32
:10267000170B1016110644F4FF20A9F06F0D711D01
:102680006817790784F40BC0012B69F0D6011C91FF
:10269000112349F0611B71098617970724F4CB01B8
:1026A00002C0D9018C91808380818823A9F0888120
:1026B000811108C089819A81DC016C91DA017C91D9
:1026C000672B08C089819A81DC017C91DA016C91C9
:1026D00060956723DC016C933996475F5F4F2996BD
:1026E000275F3F4FB9E0CB0ED11C84E0E531F807FE
:1026F00009F0ADCF99CFCF010197EC01888187FD1B
:1027000018C080910B01EA019881981312C0808152
:10271000811108C081819281EC0138812C91209532
:10272000232306C081819281EC0128813C91232BD7
:102730002883475F5F4F19963996D4E0A331BD07D0
:10274000D1F6FF91EF91DF91CF91BF91AF919F9122
:102750008F917F916F915F914F913F912F911F9139
:102760000F91FF90DF90CF900F900FBE0F901F90B2
:102770001895CF93DF9391E097BB92E09093B100CF
:102780009093B00022E82093B30090937000ECE5A2
:10279000F3E0A3E6B3E09FEFEF0121979883108267
:1027A00012821182ED01219718821C923996199696
:1027B00024E0E031F20781F780930F04DF91CF919D
:1027C00008951F93CF93DF93182F442329F010927D
:1027D000B2008FEF80930B01EBE5F3E0C0E6D3E0AE
:1027E00080E0AFEF908117FF05C097FF05C0AF3FB6
:1027F00051F406C09113FBCF688317FDF8CF46C094
:10280000908197FDA82F8F5F39962996843151F7D3
:1028100017FD3CC0AF3F09F439C089E0A802D001E0
:102820001124A55ABC4F1C9380910F0411968C93D0
:102830001197212F332727FD3095F901E057FF4FDE
:10284000E491F0E0EE0FFF1FEC55FF4F45915491DE
:1028500012964C93129713965C931397F901E458D0
:10286000FF4F249114962C93149715966C93811115
:1028700002C060E001C061E0812F0E946F0361E04F
:10288000812FDF91CF911F910C943703DF91CF916E
:102890001F9108952F923F924F925F926F927F9275
:1028A0008F929F92AF92BF92CF92DF92EF92FF9260
:1028B0000F931F93CF93DF9300D000D01F92CDB71B
:1028C000DEB789831B015B834A838BE593E09D839D
:1028D0008C8303E613E04A01A12CB12C20EFC22E19
:1028E0002FE0D22EE12CF12C2B01612C712C99813F
:1028F000EC81FD81808197FF0DC087FF0EC08C8128
:102900009D8109969D838C83075F1F4F8F50944054
:1029100071F724C0F9818F13F2CF2114310439F0FB
:10292000C701B601A30192010E94ED1702C020E089
:1029300030E0F801319720838A819B81892B39F01F
:10294000C701B601A50194010E94ED1702C020E065
:1029500030E0F8012083F981F7FDD1CF0F900F907F
:102960000F900F900F90DF91CF911F910F91FF90DB
:10297000EF90DF90CF90BF90AF909F908F907F901F
:102980006F905F904F903F902F90089561E08AE0A4
:102990000E946F0361E08AE00E9437038CB580617A
:1029A0008CBD8CB580648CBD61E08DE00E943703E6
:1029B00061E08BE00C9437030F9300E020E040E0EF
:1029C00060E080E194E00E94DC050F910895FB0136
:1029D0004281538164817581FC0142835383648306
:1029E0007583178216820895CF93FB01DB018D91C9
:1029F0008111FDCF80E090E020E030E0CAE019C016
:102A00008F3F910509F054F5DA01A20FB31F12961A
:102A10008C932F5F3F4F80E090E00BC0DC01CA9F9A
:102A2000C001CB9F900D112470E060537109860F97
:102A3000971F6191662321F02430310594F00EC078
:102A40008F3F910509F054F4243031053CF4FA012C
:102A5000E20FF31F828321E030E006C020E030E087
:102A600003C06E32D9F6CCCFC901CF910895AF9291
:102A7000BF92CF92DF92EF92FF920F931F93CF936B
:102A8000DF9300D01F92CDB7DEB77C015B010E94BF
:102A90007002F701778366838701085F1F4FB701D4
:102AA0006A5F7F4F42E050E0C8010E94590D81E00B
:102AB00090E09A83898342E050E0BE016F5F7F4FD0
:102AC000C8010E94590D80E091E09A83898342E019
:102AD00050E0BE016F5F7F4FC8010E94590D1A82FE
:102AE000198242E050E0BE016F5F7F4FC8010E9433
:102AF000590D42E050E0BE016F5F7F4FC8010E9458
:102B0000590D42E050E0BE016F5F7F4FC8010E9447
:102B1000590D7501650121C0F6017F018191811177
:102B200007C05701AC18BD081A141B0424F011C0CB
:102B30008E3299F7F6CFAB8241E050E0BE016D5F77
:102B40007F4FC8010E94590DA501B601C8010E941E
:102B5000590D6701FFEFCF1ADF0AF701808181115C
:102B6000DBCF1B8241E050E0BE016D5F7F4FC801AB
:102B70000E94590DE12CFF24F394FA82E98242E08D
:102B800050E0BE016F5F7F4FC8010E94590DFA826D
:102B9000E98242E050E0BE016F5F7F4FC8010E94B2
:102BA000590D81E090E00F900F900F90DF91CF9141
:102BB0001F910F91FF90EF90DF90CF90BF90AF905B
:102BC00008954F925F926F927F928F929F92AF92F1
:102BD000BF92CF92DF92EF92FF920F931F93CF930A
:102BE000DF93CDB7DEB763970FB6F894DEBF0FBEA5
:102BF000CDBF7C015B016A010E9470022B013C0188
:102C00008701085F1F4F4501A12CB12C12C00E9403
:102C10007002641975098609970986169706A80631
:102C2000B90608F40FC162E370E080E090E00E9412
:102C3000AC02C8010E94900D1816190644F7F7015E
:102C40004281538164817581818D928DA38DB48D74
:102C5000481759076A077B0709F0F7C0858D968DDD
:102C6000C59709F0F2C0F7C04CE050E0BE016F5FBD
:102C70007F4FC8010E94100D8B819C819827892766
:102C800098279A8B898BF7014681578129813A8150
:102C90004217530711F497FD06C0C8010E94E40CC7
:102CA0002CEF3FEFDEC08F709270892B31F0C8019E
:102CB0000E94E40C2BEF3FEFD4C08F8098849824BF
:102CC000892498248114910479F5C8010E94E40CA8
:102CD0002AEF3FEFC6C041E050E0BE01635F7F4F87
:102CE000C8010E94100D8D85811107C08D8581114D
:102CF000F2CF0AC0C8010E942F0D8D85982F9150E8
:102D00009D878111F7CFF2CFC8010E942F0DC80116
:102D10000E942F0DC8010E942F0DC8010E942F0D87
:102D2000FFEFEF1AFF0A02C0E12CF12C8D819E818A
:102D3000982789279827E816F90668F2A12CB12C64
:102D400041E050E0BE016D5E7F4FC8010E94100D52
:102D50008B89982F907C69F4811104C00EC0C80142
:102D60000E942F0D8B89982F91509B8B8111F7CF4B
:102D700004C0C8010E942F0D1B8A8B898111E0CFEE
:102D800042E050E0BE01615F7F4FC8010E94100D1C
:102D900042E050E0BE01635F7F4FC8010E94100D0A
:102DA000C8010E942F0DC8010E942F0DC8010E946A
:102DB0002F0DC8010E942F0D42E050E0BE016F5E52
:102DC0007F4FC8010E94100D8F8598898115914011
:102DD00011F58D859E8581159140E9F489899A893F
:102DE0008115944031F0C8010E94E40C27EF3FEFB9
:102DF00038C0B6016E5F7F4F44E050E0C8010E94CA
:102E0000100D21E030E02DC0C8010E942F0D2FEFE2
:102E1000E21AF20A02C0E12CF12C89899A899827DA
:102E200089279827E816F90678F38FEFA81AB80AC9
:102E3000A814B90409F084CFC8010E94E40C26EF5D
:102E40003FEF0FC02FEF3FEF0CC02EEF3FEF09C059
:102E50002DEF3FEF06C0C8010E94CA0C0C97C4F3C7
:102E600003CFC90163960FB6F894DEBF0FBECDBF86
:102E7000DF91CF911F910F91FF90EF90DF90CF9056
:102E8000BF90AF909F908F907F906F905F904F908A
:102E900008958F929F92AF92BF92CF92DF92EF925E
:102EA000FF920F931F93CF93DF9300D000D000D0F9
:102EB000CDB7DEB78C015B016A010E94F414892B47
:102EC00009F051C0F801428153816481758180917C
:102ED000180490911904A0911A04B0911B0448178A
:102EE00059076A077B0709F442C00E947002780103
:102EF000F8E0EF0EF11C6F707727882799277C5F29
:102F0000C7010E94DF0D8130B9F588E092E09A8315
:102F10008983F80182819381A481B5818B839C830D
:102F2000AD83BE8345E350E0BE016F5F7F4FC701B5
:102F30000E94730D892B19F4A12CB12C10C0B5017E
:102F4000C8010E943715892BB9F3C7010E946F0D84
:102F5000892BA9F4F1CFFFEFAF16BF0699F0C70197
:102F60000E947B0D1BC0AA24A394B12C17C02EEF86
:102F7000A22EBB24BA9412C0A12CB12C0FC093E096
:102F8000892E912CA60168E873E1C8010E94E11521
:102F90005C0121E0821A910811F3DDCFC50126966C
:102FA0000FB6F894DEBF0FBECDBFDF91CF911F915A
:102FB0000F91FF90EF90DF90CF90BF90AF909F90D8
:102FC0008F9008950F9300E020E040E060E086E1FC
:102FD00094E00E94DC050F910895A1E21A2EAA1B2D
:102FE000BB1BFD010DC0AA1FBB1FEE1FFF1FA217B9
:102FF000B307E407F50720F0A21BB30BE40BF50BB6
:10300000661F771F881F991F1A9469F7609570953E
:10301000809590959B01AC01BD01CF010895EE0F05
:0E302000FF1F0590F491E02D0994F894FFCF66
:10302E00C7DD54FFF4D10600010004FF736572760C
:10303E00657220697320617420006E657720636C61
:10304E0069656E7400485454502F312E3120323041
:10305E0030204F4B00436F6E74656E742D54797033
:10306E00653A20746578742F68746D6C00436F6ECA
:10307E006E656374696F6E3A20636C6F7365005290
:10308E006566726573683A2035003C21444F43549F
:10309E005950452048544D4C3E003C68746D6C3E72
:1030AE0000616E616C6F6720696E70757420002010
:1030BE00697320003C6272202F3E004C61207661C5
:1030CE006C65757220646520616D706572656D65E5
:1030DE0074657220657374203A20004C6520746507
:1030EE006D7073206427657865637573696F6E20E4
:1030FE006573742064653A20003C2F68746D6C3ED5
:10310E0000636C69656E74206469736F6E6E6563BF
:10311E00746564000000000004040F06A603D503C6
:10312E00B903F903000000009705000000007B07BB
:10313E00FE07F307D807B007910703091C08D40749
:10314E00C0089C08A80700000000110BD70B270B26
:10315E0000000000CE0C590DCA0C2F0DF60CE40C1D
:10316E00DF0D7B0D730D2E0E6F0D900D100DAF0C30
:04317E00B60CC60CB9
:00000001FF
